{
  "contractName": "EthDex",
  "abi": [
    {
      "inputs": [
        {
          "internalType": "uint256",
          "name": "initialSupply",
          "type": "uint256"
        },
        {
          "internalType": "string",
          "name": "tokenName",
          "type": "string"
        },
        {
          "internalType": "uint8",
          "name": "decimalUnits",
          "type": "uint8"
        },
        {
          "internalType": "string",
          "name": "tokenSymbol",
          "type": "string"
        }
      ],
      "stateMutability": "nonpayable",
      "type": "constructor"
    },
    {
      "anonymous": false,
      "inputs": [
        {
          "indexed": true,
          "internalType": "address",
          "name": "from",
          "type": "address"
        },
        {
          "indexed": false,
          "internalType": "uint256",
          "name": "value",
          "type": "uint256"
        }
      ],
      "name": "Burn",
      "type": "event"
    },
    {
      "anonymous": false,
      "inputs": [
        {
          "indexed": true,
          "internalType": "address",
          "name": "from",
          "type": "address"
        },
        {
          "indexed": false,
          "internalType": "uint256",
          "name": "value",
          "type": "uint256"
        }
      ],
      "name": "Freeze",
      "type": "event"
    },
    {
      "anonymous": false,
      "inputs": [
        {
          "indexed": true,
          "internalType": "address",
          "name": "from",
          "type": "address"
        },
        {
          "indexed": true,
          "internalType": "address",
          "name": "to",
          "type": "address"
        },
        {
          "indexed": false,
          "internalType": "uint256",
          "name": "value",
          "type": "uint256"
        }
      ],
      "name": "Transfer",
      "type": "event"
    },
    {
      "anonymous": false,
      "inputs": [
        {
          "indexed": true,
          "internalType": "address",
          "name": "from",
          "type": "address"
        },
        {
          "indexed": false,
          "internalType": "uint256",
          "name": "value",
          "type": "uint256"
        }
      ],
      "name": "Unfreeze",
      "type": "event"
    },
    {
      "stateMutability": "payable",
      "type": "fallback"
    },
    {
      "inputs": [
        {
          "internalType": "address",
          "name": "",
          "type": "address"
        },
        {
          "internalType": "address",
          "name": "",
          "type": "address"
        }
      ],
      "name": "allowance",
      "outputs": [
        {
          "internalType": "uint256",
          "name": "",
          "type": "uint256"
        }
      ],
      "stateMutability": "view",
      "type": "function"
    },
    {
      "inputs": [
        {
          "internalType": "address",
          "name": "",
          "type": "address"
        }
      ],
      "name": "balanceOf",
      "outputs": [
        {
          "internalType": "uint256",
          "name": "",
          "type": "uint256"
        }
      ],
      "stateMutability": "view",
      "type": "function"
    },
    {
      "inputs": [
        {
          "internalType": "address",
          "name": "",
          "type": "address"
        }
      ],
      "name": "freezeOf",
      "outputs": [
        {
          "internalType": "uint256",
          "name": "",
          "type": "uint256"
        }
      ],
      "stateMutability": "view",
      "type": "function"
    },
    {
      "stateMutability": "payable",
      "type": "receive"
    },
    {
      "inputs": [
        {
          "internalType": "address",
          "name": "_to",
          "type": "address"
        },
        {
          "internalType": "uint256",
          "name": "_value",
          "type": "uint256"
        }
      ],
      "name": "transfer",
      "outputs": [],
      "stateMutability": "nonpayable",
      "type": "function"
    },
    {
      "inputs": [
        {
          "internalType": "address",
          "name": "_spender",
          "type": "address"
        },
        {
          "internalType": "uint256",
          "name": "_value",
          "type": "uint256"
        }
      ],
      "name": "approve",
      "outputs": [
        {
          "internalType": "bool",
          "name": "success",
          "type": "bool"
        }
      ],
      "stateMutability": "nonpayable",
      "type": "function"
    },
    {
      "inputs": [
        {
          "internalType": "address",
          "name": "_from",
          "type": "address"
        },
        {
          "internalType": "address",
          "name": "_to",
          "type": "address"
        },
        {
          "internalType": "uint256",
          "name": "_value",
          "type": "uint256"
        }
      ],
      "name": "transferFrom",
      "outputs": [
        {
          "internalType": "bool",
          "name": "success",
          "type": "bool"
        }
      ],
      "stateMutability": "nonpayable",
      "type": "function"
    },
    {
      "inputs": [
        {
          "internalType": "uint256",
          "name": "_value",
          "type": "uint256"
        }
      ],
      "name": "burn",
      "outputs": [
        {
          "internalType": "bool",
          "name": "success",
          "type": "bool"
        }
      ],
      "stateMutability": "nonpayable",
      "type": "function"
    },
    {
      "inputs": [
        {
          "internalType": "uint256",
          "name": "_value",
          "type": "uint256"
        }
      ],
      "name": "freeze",
      "outputs": [
        {
          "internalType": "bool",
          "name": "success",
          "type": "bool"
        }
      ],
      "stateMutability": "nonpayable",
      "type": "function"
    },
    {
      "inputs": [
        {
          "internalType": "uint256",
          "name": "_value",
          "type": "uint256"
        }
      ],
      "name": "unfreeze",
      "outputs": [
        {
          "internalType": "bool",
          "name": "success",
          "type": "bool"
        }
      ],
      "stateMutability": "nonpayable",
      "type": "function"
    },
    {
      "inputs": [
        {
          "internalType": "uint256",
          "name": "amount",
          "type": "uint256"
        }
      ],
      "name": "withdrawEther",
      "outputs": [],
      "stateMutability": "nonpayable",
      "type": "function"
    },
    {
      "inputs": [],
      "name": "name",
      "outputs": [
        {
          "internalType": "string",
          "name": "",
          "type": "string"
        }
      ],
      "stateMutability": "view",
      "type": "function"
    },
    {
      "inputs": [],
      "name": "symbol",
      "outputs": [
        {
          "internalType": "string",
          "name": "",
          "type": "string"
        }
      ],
      "stateMutability": "view",
      "type": "function"
    },
    {
      "inputs": [],
      "name": "decimals",
      "outputs": [
        {
          "internalType": "uint8",
          "name": "",
          "type": "uint8"
        }
      ],
      "stateMutability": "view",
      "type": "function"
    },
    {
      "inputs": [],
      "name": "totalSupply",
      "outputs": [
        {
          "internalType": "uint256",
          "name": "",
          "type": "uint256"
        }
      ],
      "stateMutability": "view",
      "type": "function"
    },
    {
      "inputs": [],
      "name": "owner",
      "outputs": [
        {
          "internalType": "address",
          "name": "",
          "type": "address"
        }
      ],
      "stateMutability": "view",
      "type": "function"
    }
  ],
  "bytecode": "0x60806040523480156200001157600080fd5b5060405162000f5438038062000f54833981016040819052620000349162000218565b3360009081526005602090815260408220869055600386905584516200005e9291860190620000a5565b50805162000074906001906020840190620000a5565b50506002805460ff90921660ff199092169190911790555050600480546001600160a01b03191633179055620002e3565b828054620000b390620002a7565b90600052602060002090601f016020900481019282620000d7576000855562000122565b82601f10620000f257805160ff191683800117855562000122565b8280016001018555821562000122579182015b828111156200012257825182559160200191906001019062000105565b506200013092915062000134565b5090565b5b8082111562000130576000815560010162000135565b634e487b7160e01b600052604160045260246000fd5b600082601f8301126200017357600080fd5b81516001600160401b03808211156200019057620001906200014b565b604051601f8301601f19908116603f01168101908282118183101715620001bb57620001bb6200014b565b81604052838152602092508683858801011115620001d857600080fd5b600091505b83821015620001fc5785820183015181830184015290820190620001dd565b838211156200020e5760008385830101525b9695505050505050565b600080600080608085870312156200022f57600080fd5b845160208601519094506001600160401b03808211156200024f57600080fd5b6200025d8883890162000161565b94506040870151915060ff821682146200027657600080fd5b6060870151919350808211156200028c57600080fd5b506200029b8782880162000161565b91505092959194509250565b600181811c90821680620002bc57607f821691505b602082108103620002dd57634e487b7160e01b600052602260045260246000fd5b50919050565b610c6180620002f36000396000f3fe6080604052600436106100e05760003560e01c80636623fc4611610084578063a9059cbb11610056578063a9059cbb1461026f578063cd4217c11461028f578063d7a78db8146102bc578063dd62ed3e146102dc57005b80636623fc46146101e557806370a08231146102055780638da5cb5b1461023257806395d89b411461025a57005b806323b872dd116100bd57806323b872dd14610163578063313ce567146101835780633bed33ce146101a557806342966c68146101c557005b806306fdde03146100e9578063095ea7b31461011457806318160ddd1461014457005b366100e757005b005b3480156100f557600080fd5b506100fe610314565b60405161010b9190610a6e565b60405180910390f35b34801561012057600080fd5b5061013461012f366004610adf565b6103a6565b604051901515815260200161010b565b34801561015057600080fd5b506003545b60405190815260200161010b565b34801561016f57600080fd5b5061013461017e366004610b09565b6103e2565b34801561018f57600080fd5b5060025460405160ff909116815260200161010b565b3480156101b157600080fd5b506100e76101c0366004610b45565b6106b7565b3480156101d157600080fd5b506101346101e0366004610b45565b61070c565b3480156101f157600080fd5b50610134610200366004610b45565b6107ad565b34801561021157600080fd5b50610155610220366004610b5e565b60056020526000908152604090205481565b34801561023e57600080fd5b506004546040516001600160a01b03909116815260200161010b565b34801561026657600080fd5b506100fe61085c565b34801561027b57600080fd5b506100e761028a366004610adf565b61086b565b34801561029b57600080fd5b506101556102aa366004610b5e565b60066020526000908152604090205481565b3480156102c857600080fd5b506101346102d7366004610b45565b610977565b3480156102e857600080fd5b506101556102f7366004610b79565b600760209081526000928352604080842090915290825290205481565b60606000805461032390610bac565b80601f016020809104026020016040519081016040528092919081815260200182805461034f90610bac565b801561039c5780601f106103715761010080835404028352916020019161039c565b820191906000526020600020905b81548152906001019060200180831161037f57829003601f168201915b5050505050905090565b60008082116103b457600080fd5b503360009081526007602090815260408083206001600160a01b039590951683529390529190912055600190565b60006001600160a01b03831661043f5760405162461bcd60e51b815260206004820181905260248201527f557365206275726e2066756e6374696f6e20746f206275726e20746f6b656e7360448201526064015b60405180910390fd5b6000821161048f5760405162461bcd60e51b815260206004820152601c60248201527f56616c7565206d7573742062652067726561746572207468616e2030000000006044820152606401610436565b6001600160a01b0384166000908152600560205260409020548211156104ee5760405162461bcd60e51b8152602060048201526014602482015273496e73756666696369656e742042616c616e636560601b6044820152606401610436565b6001600160a01b0383166000908152600560205260409020546105118382610bfc565b116105535760405162461bcd60e51b8152602060048201526012602482015271526563697069656e74204f766572666c6f7760701b6044820152606401610436565b6001600160a01b03841660009081526007602090815260408083203384529091529020548211156105bf5760405162461bcd60e51b8152602060048201526016602482015275496e73756666696369656e7420416c6c6f77616e636560501b6044820152606401610436565b6001600160a01b0384166000908152600560205260409020546105e29083610a26565b6001600160a01b0380861660009081526005602052604080822093909355908516815220546106119083610a46565b6001600160a01b03808516600090815260056020908152604080832094909455918716815260078252828120338252909152205461064f9083610a26565b6001600160a01b03858116600081815260076020908152604080832033845282529182902094909455518581529186169290917fddf252ad1be2c89b69c2b068fc378daa952ba7f163c4a11628f55a4df523b3ef910160405180910390a35060019392505050565b6004546001600160a01b031633146106ce57600080fd5b6004546040516001600160a01b039091169082156108fc029083906000818181858888f19350505050158015610708573d6000803e3d6000fd5b5050565b3360009081526005602052604081205482111561072857600080fd5b6000821161073557600080fd5b3360009081526005602052604090205461074f9083610a26565b3360009081526005602052604090205560035461076c9083610a26565b60035560405182815233907fcc16f5dbb4873280815c1ee09dbd06736cffcc184412cf7a71a0fdb75d397ca5906020015b60405180910390a2506001919050565b336000908152600660205260408120548211156107c957600080fd5b600082116107d657600080fd5b336000908152600660205260409020546107f09083610a26565b336000908152600660209081526040808320939093556005905220546108169083610a46565b33600081815260056020526040908190209290925590517f2cfce4af01bcb9d6cf6c84ee1b7c491100b8695368264146a94d71e10a63083f9061079d9085815260200190565b60606001805461032390610bac565b6001600160a01b03821661087e57600080fd5b6000811161088b57600080fd5b336000908152600560205260409020548111156108a757600080fd5b6001600160a01b0382166000908152600560205260409020546108ca8282610bfc565b116108d457600080fd5b336000908152600560205260409020546108ee9082610a26565b33600090815260056020526040808220929092556001600160a01b0384168152205461091a9082610a46565b6001600160a01b0383166000818152600560205260409081902092909255905133907fddf252ad1be2c89b69c2b068fc378daa952ba7f163c4a11628f55a4df523b3ef9061096b9085815260200190565b60405180910390a35050565b3360009081526005602052604081205482111561099357600080fd5b600082116109a057600080fd5b336000908152600560205260409020546109ba9083610a26565b336000908152600560209081526040808320939093556006905220546109e09083610a46565b33600081815260066020526040908190209290925590517ff97a274face0b5517365ad396b1fdba6f68bd3135ef603e44272adba3af5a1e09061079d9085815260200190565b600082821115610a3557600080fd5b610a3f8284610c14565b9392505050565b600080610a538385610bfc565b9050838110158015610a655750828110155b610a3f57600080fd5b600060208083528351808285015260005b81811015610a9b57858101830151858201604001528201610a7f565b81811115610aad576000604083870101525b50601f01601f1916929092016040019392505050565b80356001600160a01b0381168114610ada57600080fd5b919050565b60008060408385031215610af257600080fd5b610afb83610ac3565b946020939093013593505050565b600080600060608486031215610b1e57600080fd5b610b2784610ac3565b9250610b3560208501610ac3565b9150604084013590509250925092565b600060208284031215610b5757600080fd5b5035919050565b600060208284031215610b7057600080fd5b610a3f82610ac3565b60008060408385031215610b8c57600080fd5b610b9583610ac3565b9150610ba360208401610ac3565b90509250929050565b600181811c90821680610bc057607f821691505b602082108103610be057634e487b7160e01b600052602260045260246000fd5b50919050565b634e487b7160e01b600052601160045260246000fd5b60008219821115610c0f57610c0f610be6565b500190565b600082821015610c2657610c26610be6565b50039056fea2646970667358221220899bfa40235e659e74358f9fc0847f26c8b0df3814e3a998847e66670650f2dc64736f6c634300080e0033",
  "immutableReferences": {},
  "source": "// SPDX-License-Identifier: MIT\npragma solidity ^0.8.14;\n\n/**\n * Math operations with safety checks\n */\ncontract SafeMath {\n    function safeMul(uint256 a, uint256 b) internal pure returns (uint256) {\n        uint256 c = a * b;\n        require(a == 0 || c / a == b);\n        return c;\n    }\n\n    function safeDiv(uint256 a, uint256 b) internal pure returns (uint256) {\n        require(b > 0);\n        uint256 c = a / b;\n        require(a == b * c + (a % b));\n        return c;\n    }\n\n    function safeSub(uint256 a, uint256 b) internal pure returns (uint256) {\n        require(b <= a);\n        return a - b;\n    }\n\n    function safeAdd(uint256 a, uint256 b) internal pure returns (uint256) {\n        uint256 c = a + b;\n        require(c >= a && c >= b);\n        return c;\n    }\n}\n\ncontract EthDex is SafeMath {\n    string private _name;\n    string private _symbol;\n    uint8 private _decimals;\n    uint256 private _totalSupply;\n    address payable private _owner;\n\n    /* This creates an array with all balances */\n    mapping(address => uint256) public balanceOf;\n    mapping(address => uint256) public freezeOf;\n    mapping(address => mapping(address => uint256)) public allowance;\n\n    /* This generates a public event on the blockchain that will notify clients */\n    event Transfer(address indexed from, address indexed to, uint256 value);\n\n    /* This notifies clients about the amount burnt */\n    event Burn(address indexed from, uint256 value);\n\n    /* This notifies clients about the amount frozen */\n    event Freeze(address indexed from, uint256 value);\n\n    /* This notifies clients about the amount unfrozen */\n    event Unfreeze(address indexed from, uint256 value);\n\n    /* Initializes contract with initial supply tokens to the creator of the contract */\n    constructor(\n        uint256 initialSupply,\n        string memory tokenName,\n        uint8 decimalUnits,\n        string memory tokenSymbol\n    ) {\n        balanceOf[msg.sender] = initialSupply; // Give the creator all initial tokens\n        _totalSupply = initialSupply; // Update total supply\n        _name = tokenName; // Set the name for display purposes\n        _symbol = tokenSymbol; // Set the symbol for display purposes\n        _decimals = decimalUnits; // Amount of decimals for display purposes\n        _owner = payable(msg.sender);\n    }\n\n    /* Send coins */\n    function transfer(address _to, uint256 _value) public {\n        require(_to != address(0x0)); // Prevent transfer to 0x0 address. Use burn() instead\n        require(_value > 0);\n        require(balanceOf[msg.sender] >= _value); // Check if the sender has enough\n        require(balanceOf[_to] + _value > balanceOf[_to]); // Check for overflows\n        balanceOf[msg.sender] = SafeMath.safeSub(balanceOf[msg.sender], _value); // Subtract from the sender\n        balanceOf[_to] = SafeMath.safeAdd(balanceOf[_to], _value); // Add the same to the recipient\n        emit Transfer(msg.sender, _to, _value); // Notify anyone listening that this transfer took place\n    }\n\n    /* Allow another contract to spend some tokens in your behalf */\n    function approve(address _spender, uint256 _value)\n        public\n        returns (bool success)\n    {\n        require(_value > 0);\n        allowance[msg.sender][_spender] = _value;\n        return true;\n    }\n\n    /* A contract attempts to get the coins */\n    function transferFrom(\n        address _from,\n        address _to,\n        uint256 _value\n    ) public returns (bool success) {\n        require(_to != address(0x0), 'Use burn function to burn tokens'); // Prevent transfer to 0x0 address. Use burn() instead\n        require(_value > 0, 'Value must be greater than 0');\n        require(balanceOf[_from] >= _value, 'Insufficient Balance'); // Check if the sender has enough\n        require(balanceOf[_to] + _value > balanceOf[_to], 'Recipient Overflow'); // Check for overflows\n        require(\n            _value <= allowance[_from][msg.sender],\n            'Insufficient Allowance'\n        ); // Check allowance\n        balanceOf[_from] = SafeMath.safeSub(balanceOf[_from], _value); // Subtract from the sender\n        balanceOf[_to] = SafeMath.safeAdd(balanceOf[_to], _value); // Add the same to the recipient\n        allowance[_from][msg.sender] = SafeMath.safeSub(\n            allowance[_from][msg.sender],\n            _value\n        );\n        emit Transfer(_from, _to, _value);\n        return true;\n    }\n\n    function burn(uint256 _value) public returns (bool success) {\n        require(balanceOf[msg.sender] >= _value); // Check if the sender has enough\n        require(_value > 0);\n        balanceOf[msg.sender] = SafeMath.safeSub(balanceOf[msg.sender], _value); // Subtract from the sender\n        _totalSupply = SafeMath.safeSub(_totalSupply, _value); // Updates totalSupply\n        emit Burn(msg.sender, _value);\n        return true;\n    }\n\n    function freeze(uint256 _value) public returns (bool success) {\n        require(balanceOf[msg.sender] >= _value); // Check if the sender has enough\n        require(_value > 0);\n        balanceOf[msg.sender] = SafeMath.safeSub(balanceOf[msg.sender], _value); // Subtract from the sender\n        freezeOf[msg.sender] = SafeMath.safeAdd(freezeOf[msg.sender], _value); // Updates totalSupply\n        emit Freeze(msg.sender, _value);\n        return true;\n    }\n\n    function unfreeze(uint256 _value) public returns (bool success) {\n        require(freezeOf[msg.sender] >= _value); // Check if the sender has enough\n        require(_value > 0);\n        freezeOf[msg.sender] = SafeMath.safeSub(freezeOf[msg.sender], _value); // Subtract from the sender\n        balanceOf[msg.sender] = SafeMath.safeAdd(balanceOf[msg.sender], _value);\n        emit Unfreeze(msg.sender, _value);\n        return true;\n    }\n\n    // transfer balance to owner\n    function withdrawEther(uint256 amount) public {\n        require(msg.sender == _owner);\n        _owner.transfer(amount);\n    }\n\n    function name() public view returns (string memory) {\n        return _name;\n    }\n\n    function symbol() public view returns (string memory) {\n        return _symbol;\n    }\n\n    function decimals() public view returns (uint8) {\n        return _decimals;\n    }\n\n    function totalSupply() public view returns (uint256) {\n        return _totalSupply;\n    }\n\n    function owner() public view returns (address) {\n        return _owner;\n    }\n\n    // can accept ether\n    fallback() external payable {}\n\n    receive() external payable {}\n}\n",
  "sourcePath": "/Users/james/Engineering/Projects/eth-dex/src/contracts/EthDex.sol",
  "compiler": {
    "name": "solc",
    "version": "0.8.14+commit.80d49f37.Emscripten.clang"
  },
  "schemaVersion": "3.4.7",
  "updatedAt": "2022-06-08T23:49:31.763Z",
  "devdoc": {
    "kind": "dev",
    "methods": {},
    "version": 1
  },
  "userdoc": {
    "kind": "user",
    "methods": {},
    "version": 1
  }
}