{
  "contractName": "EthSwap",
  "abi": [
    {
      "inputs": [],
      "name": "_name",
      "outputs": [
        {
          "internalType": "string",
          "name": "",
          "type": "string"
        }
      ],
      "stateMutability": "view",
      "type": "function"
    },
    {
      "inputs": [],
      "name": "name",
      "outputs": [
        {
          "internalType": "string",
          "name": "",
          "type": "string"
        }
      ],
      "stateMutability": "view",
      "type": "function"
    }
  ],
  "bytecode": "0x60c0604052601860808190527f4574685377617020496e7374616e742045786368616e6765000000000000000060a090815261003e9160009190610051565b5034801561004b57600080fd5b50610124565b82805461005d906100ea565b90600052602060002090601f01602090048101928261007f57600085556100c5565b82601f1061009857805160ff19168380011785556100c5565b828001600101855582156100c5579182015b828111156100c55782518255916020019190600101906100aa565b506100d19291506100d5565b5090565b5b808211156100d157600081556001016100d6565b600181811c908216806100fe57607f821691505b60208210810361011e57634e487b7160e01b600052602260045260246000fd5b50919050565b610246806101336000396000f3fe608060405234801561001057600080fd5b50600436106100365760003560e01c806306fdde031461003b578063d28d885214610059575b600080fd5b610043610061565b6040516100509190610181565b60405180910390f35b6100436100f3565b606060008054610070906101d6565b80601f016020809104026020016040519081016040528092919081815260200182805461009c906101d6565b80156100e95780601f106100be576101008083540402835291602001916100e9565b820191906000526020600020905b8154815290600101906020018083116100cc57829003601f168201915b5050505050905090565b60008054610100906101d6565b80601f016020809104026020016040519081016040528092919081815260200182805461012c906101d6565b80156101795780601f1061014e57610100808354040283529160200191610179565b820191906000526020600020905b81548152906001019060200180831161015c57829003601f168201915b505050505081565b600060208083528351808285015260005b818110156101ae57858101830151858201604001528201610192565b818111156101c0576000604083870101525b50601f01601f1916929092016040019392505050565b600181811c908216806101ea57607f821691505b60208210810361020a57634e487b7160e01b600052602260045260246000fd5b5091905056fea26469706673582212200308e419642f52cc55b206726aeec7c825a66481f6e52fa134d86bd85c27149e64736f6c634300080e0033",
  "immutableReferences": {},
  "source": "// SPDX-License-Identifier: MIT\npragma solidity ^0.8.14;\n\ncontract EthSwap {\n    string public _name = 'EthSwap Instant Exchange';\n\n    function name() public view returns (string memory) {\n        return _name;\n    }\n}\n",
  "sourcePath": "/home/james/Engineering/Projects/eth-dex/src/contracts/EthSwap.sol",
  "compiler": {
    "name": "solc",
    "version": "0.8.14+commit.80d49f37.Emscripten.clang"
  },
  "schemaVersion": "3.4.7",
  "updatedAt": "2022-05-28T18:24:17.685Z",
  "devdoc": {
    "kind": "dev",
    "methods": {},
    "version": 1
  },
  "userdoc": {
    "kind": "user",
    "methods": {},
    "version": 1
  }
}