{
  "contractName": "EthSwap",
  "abi": [
    {
      "inputs": [
        {
          "internalType": "contract EthDex",
          "name": "_ethDex",
          "type": "address"
        }
      ],
      "stateMutability": "nonpayable",
      "type": "constructor"
    },
    {
      "anonymous": false,
      "inputs": [
        {
          "indexed": false,
          "internalType": "address",
          "name": "account",
          "type": "address"
        },
        {
          "indexed": false,
          "internalType": "address",
          "name": "token",
          "type": "address"
        },
        {
          "indexed": false,
          "internalType": "uint256",
          "name": "amount",
          "type": "uint256"
        },
        {
          "indexed": false,
          "internalType": "uint256",
          "name": "rate",
          "type": "uint256"
        }
      ],
      "name": "TokenBought",
      "type": "event"
    },
    {
      "inputs": [],
      "name": "_name",
      "outputs": [
        {
          "internalType": "string",
          "name": "",
          "type": "string"
        }
      ],
      "stateMutability": "view",
      "type": "function"
    },
    {
      "inputs": [],
      "name": "ethDex",
      "outputs": [
        {
          "internalType": "contract EthDex",
          "name": "",
          "type": "address"
        }
      ],
      "stateMutability": "view",
      "type": "function"
    },
    {
      "inputs": [],
      "name": "rate",
      "outputs": [
        {
          "internalType": "uint256",
          "name": "",
          "type": "uint256"
        }
      ],
      "stateMutability": "view",
      "type": "function"
    },
    {
      "inputs": [],
      "name": "buyTokens",
      "outputs": [],
      "stateMutability": "payable",
      "type": "function"
    },
    {
      "inputs": [],
      "name": "name",
      "outputs": [
        {
          "internalType": "string",
          "name": "",
          "type": "string"
        }
      ],
      "stateMutability": "view",
      "type": "function"
    }
  ],
  "bytecode": "0x60c0604052601860808190527f4574685377617020496e7374616e742045786368616e6765000000000000000060a090815261003e9160009190610094565b50606460025534801561005057600080fd5b5060405161064b38038061064b83398101604081905261006f9161012d565b600180546001600160a01b0319166001600160a01b0392909216919091179055610197565b8280546100a09061015d565b90600052602060002090601f0160209004810192826100c25760008555610108565b82601f106100db57805160ff1916838001178555610108565b82800160010185558215610108579182015b828111156101085782518255916020019190600101906100ed565b50610114929150610118565b5090565b5b808211156101145760008155600101610119565b60006020828403121561013f57600080fd5b81516001600160a01b038116811461015657600080fd5b9392505050565b600181811c9082168061017157607f821691505b60208210810361019157634e487b7160e01b600052602260045260246000fd5b50919050565b6104a5806101a66000396000f3fe60806040526004361061004a5760003560e01c806306fdde031461004f5780632c4e722e1461007a578063d0febe4c1461009e578063d28d8852146100a8578063fdb2ded6146100bd575b600080fd5b34801561005b57600080fd5b506100646100f5565b604051610071919061039a565b60405180910390f35b34801561008657600080fd5b5061009060025481565b604051908152602001610071565b6100a6610187565b005b3480156100b457600080fd5b5061006461030c565b3480156100c957600080fd5b506001546100dd906001600160a01b031681565b6040516001600160a01b039091168152602001610071565b606060008054610104906103ef565b80601f0160208091040260200160405190810160405280929190818152602001828054610130906103ef565b801561017d5780601f106101525761010080835404028352916020019161017d565b820191906000526020600020905b81548152906001019060200180831161016057829003601f168201915b5050505050905090565b6000600254346101979190610429565b6001546040516370a0823160e01b815230600482015291925082916001600160a01b03909116906370a0823190602401602060405180830381865afa1580156101e4573d6000803e3d6000fd5b505050506040513d601f19601f820116820180604052508101906102089190610456565b10156102505760405162461bcd60e51b8152602060048201526013602482015272496e73756666696369656e7420546f6b656e7360681b604482015260640160405180910390fd5b60015460405163a9059cbb60e01b8152336004820152602481018390526001600160a01b039091169063a9059cbb90604401600060405180830381600087803b15801561029c57600080fd5b505af11580156102b0573d6000803e3d6000fd5b5050600154600254604080513381526001600160a01b039093166020840152820185905260608201527f9fa236593f411affe147142a606176190ea6b18be0643332f081175cfe608b6b9250608001905060405180910390a150565b60008054610319906103ef565b80601f0160208091040260200160405190810160405280929190818152602001828054610345906103ef565b80156103925780601f1061036757610100808354040283529160200191610392565b820191906000526020600020905b81548152906001019060200180831161037557829003601f168201915b505050505081565b600060208083528351808285015260005b818110156103c7578581018301518582016040015282016103ab565b818111156103d9576000604083870101525b50601f01601f1916929092016040019392505050565b600181811c9082168061040357607f821691505b60208210810361042357634e487b7160e01b600052602260045260246000fd5b50919050565b600081600019048311821515161561045157634e487b7160e01b600052601160045260246000fd5b500290565b60006020828403121561046857600080fd5b505191905056fea26469706673582212209403c834a5b1d29a86040952a845f2ae6e9e546e19aea9b448019f5f5f34e57564736f6c634300080e0033",
  "immutableReferences": {},
  "source": "// SPDX-License-Identifier: MIT\npragma solidity ^0.8.14;\n\nimport './EthDex.sol';\n\ncontract EthSwap {\n    string public _name = 'EthSwap Instant Exchange';\n    EthDex public ethDex;\n    uint256 public rate = 100;\n\n    event TokenBought(\n        address account,\n        address token,\n        uint256 amount,\n        uint256 rate\n    );\n\n    constructor(EthDex _ethDex) {\n        ethDex = _ethDex;\n    }\n\n    function buyTokens() public payable {\n        // Calculate the number of EthDex tokens to purchase\n        uint256 tokenAmount = msg.value * rate;\n\n        // Require EthSwap has enough tokens\n        require(\n            ethDex.balanceOf(address(this)) >= tokenAmount,\n            'Insufficient Tokens'\n        );\n        ethDex.transfer(msg.sender, tokenAmount);\n\n        // Emit a token bought event\n        emit TokenBought(msg.sender, address(ethDex), tokenAmount, rate);\n    }\n\n    function name() public view returns (string memory) {\n        return _name;\n    }\n}\n",
  "sourcePath": "/home/james/Engineering/Projects/eth-dex/src/contracts/EthSwap.sol",
  "compiler": {
    "name": "solc",
    "version": "0.8.14+commit.80d49f37.Emscripten.clang"
  },
  "schemaVersion": "3.4.7",
  "updatedAt": "2022-05-29T01:44:03.584Z",
  "devdoc": {
    "kind": "dev",
    "methods": {},
    "version": 1
  },
  "userdoc": {
    "kind": "user",
    "methods": {},
    "version": 1
  }
}