{
  "contractName": "EthSwap",
  "abi": [
    {
      "inputs": [
        {
          "internalType": "contract EthDex",
          "name": "_ethDex",
          "type": "address"
        }
      ],
      "stateMutability": "nonpayable",
      "type": "constructor"
    },
    {
      "anonymous": false,
      "inputs": [
        {
          "indexed": false,
          "internalType": "address",
          "name": "from",
          "type": "address"
        },
        {
          "indexed": false,
          "internalType": "address",
          "name": "token",
          "type": "address"
        },
        {
          "indexed": false,
          "internalType": "uint256",
          "name": "amount",
          "type": "uint256"
        },
        {
          "indexed": false,
          "internalType": "uint256",
          "name": "rate",
          "type": "uint256"
        }
      ],
      "name": "TokenSwap",
      "type": "event"
    },
    {
      "inputs": [],
      "name": "_name",
      "outputs": [
        {
          "internalType": "string",
          "name": "",
          "type": "string"
        }
      ],
      "stateMutability": "view",
      "type": "function"
    },
    {
      "inputs": [],
      "name": "ethDex",
      "outputs": [
        {
          "internalType": "contract EthDex",
          "name": "",
          "type": "address"
        }
      ],
      "stateMutability": "view",
      "type": "function"
    },
    {
      "inputs": [],
      "name": "rate",
      "outputs": [
        {
          "internalType": "uint256",
          "name": "",
          "type": "uint256"
        }
      ],
      "stateMutability": "view",
      "type": "function"
    },
    {
      "inputs": [],
      "name": "buyTokens",
      "outputs": [
        {
          "internalType": "bool",
          "name": "success",
          "type": "bool"
        }
      ],
      "stateMutability": "payable",
      "type": "function"
    },
    {
      "inputs": [
        {
          "internalType": "uint256",
          "name": "_value",
          "type": "uint256"
        }
      ],
      "name": "sellTokens",
      "outputs": [
        {
          "internalType": "bool",
          "name": "success",
          "type": "bool"
        }
      ],
      "stateMutability": "nonpayable",
      "type": "function"
    },
    {
      "inputs": [],
      "name": "name",
      "outputs": [
        {
          "internalType": "string",
          "name": "",
          "type": "string"
        }
      ],
      "stateMutability": "view",
      "type": "function"
    }
  ],
  "bytecode": "0x60c0604052601860808190527f4574685377617020496e7374616e742045786368616e6765000000000000000060a090815261003e9160009190610094565b50606460025534801561005057600080fd5b5060405161089138038061089183398101604081905261006f9161012d565b600180546001600160a01b0319166001600160a01b0392909216919091179055610197565b8280546100a09061015d565b90600052602060002090601f0160209004810192826100c25760008555610108565b82601f106100db57805160ff1916838001178555610108565b82800160010185558215610108579182015b828111156101085782518255916020019190600101906100ed565b50610114929150610118565b5090565b5b808211156101145760008155600101610119565b60006020828403121561013f57600080fd5b81516001600160a01b038116811461015657600080fd5b9392505050565b600181811c9082168061017157607f821691505b60208210810361019157634e487b7160e01b600052602260045260246000fd5b50919050565b6106eb806101a66000396000f3fe6080604052600436106100555760003560e01c806306fdde031461005a5780632c4e722e146100855780636c11bcd3146100a9578063d0febe4c146100d9578063d28d8852146100e1578063fdb2ded6146100f6575b600080fd5b34801561006657600080fd5b5061006f61012e565b60405161007c919061057c565b60405180910390f35b34801561009157600080fd5b5061009b60025481565b60405190815260200161007c565b3480156100b557600080fd5b506100c96100c43660046105d1565b6101c0565b604051901515815260200161007c565b6100c9610362565b3480156100ed57600080fd5b5061006f6104ee565b34801561010257600080fd5b50600154610116906001600160a01b031681565b6040516001600160a01b03909116815260200161007c565b60606000805461013d906105ea565b80601f0160208091040260200160405190810160405280929190818152602001828054610169906105ea565b80156101b65780601f1061018b576101008083540402835291602001916101b6565b820191906000526020600020905b81548152906001019060200180831161019957829003601f168201915b5050505050905090565b6001546040516370a0823160e01b815233600482015260009183916001600160a01b03909116906370a0823190602401602060405180830381865afa15801561020d573d6000803e3d6000fd5b505050506040513d601f19601f820116820180604052508101906102319190610624565b101561023c57600080fd5b60006002548361024c919061063d565b90508047101561025b57600080fd5b6001546040516323b872dd60e01b8152336004820152306024820152604481018590526001600160a01b03909116906323b872dd906064016020604051808303816000875af11580156102b2573d6000803e3d6000fd5b505050506040513d601f19601f820116820180604052508101906102d6919061065f565b50604051339082156108fc029083906000818181858888f19350505050158015610304573d6000803e3d6000fd5b50600154600254604080513381526001600160a01b039093166020840152820185905260608201527f1f2c1de040604eaf4a8c72b05bd7c16fae213f15cbde69ecf70dd3b97fef1f2f9060800160405180910390a150600192915050565b600080600254346103739190610688565b6001546040516370a0823160e01b815230600482015291925082916001600160a01b03909116906370a0823190602401602060405180830381865afa1580156103c0573d6000803e3d6000fd5b505050506040513d601f19601f820116820180604052508101906103e49190610624565b101561042d5760405162461bcd60e51b8152602060048201526014602482015273496e73756666696369656e742042616c616e636560601b604482015260640160405180910390fd5b60015460405163a9059cbb60e01b8152336004820152602481018390526001600160a01b039091169063a9059cbb90604401600060405180830381600087803b15801561047957600080fd5b505af115801561048d573d6000803e3d6000fd5b5050600154600254604080513381526001600160a01b039093166020840152820185905260608201527f1f2c1de040604eaf4a8c72b05bd7c16fae213f15cbde69ecf70dd3b97fef1f2f9250608001905060405180910390a1600191505090565b600080546104fb906105ea565b80601f0160208091040260200160405190810160405280929190818152602001828054610527906105ea565b80156105745780601f1061054957610100808354040283529160200191610574565b820191906000526020600020905b81548152906001019060200180831161055757829003601f168201915b505050505081565b600060208083528351808285015260005b818110156105a95785810183015185820160400152820161058d565b818111156105bb576000604083870101525b50601f01601f1916929092016040019392505050565b6000602082840312156105e357600080fd5b5035919050565b600181811c908216806105fe57607f821691505b60208210810361061e57634e487b7160e01b600052602260045260246000fd5b50919050565b60006020828403121561063657600080fd5b5051919050565b60008261065a57634e487b7160e01b600052601260045260246000fd5b500490565b60006020828403121561067157600080fd5b8151801515811461068157600080fd5b9392505050565b60008160001904831182151516156106b057634e487b7160e01b600052601160045260246000fd5b50029056fea2646970667358221220ee1274a86fb6f7799f5e147c06dd87a23ef95c62f997f9641e122bd8f79f939b64736f6c634300080e0033",
  "immutableReferences": {},
  "source": "// SPDX-License-Identifier: MIT\npragma solidity ^0.8.14;\n\nimport './EthDex.sol';\n\ncontract EthSwap {\n    string public _name = 'EthSwap Instant Exchange';\n    EthDex public ethDex;\n    uint256 public rate = 100;\n\n    event TokenSwap(address from, address token, uint256 amount, uint256 rate);\n\n    constructor(EthDex _ethDex) {\n        ethDex = _ethDex;\n    }\n\n    function buyTokens() public payable returns (bool success) {\n        // Calculate the number of EthDex tokens to purchase\n        uint256 tokenAmount = msg.value * rate;\n\n        // Require EthSwap has enough tokens\n        require(\n            ethDex.balanceOf(address(this)) >= tokenAmount,\n            'Insufficient Balance'\n        );\n        ethDex.transfer(msg.sender, tokenAmount);\n\n        // Emit a token bought event\n        emit TokenSwap(msg.sender, address(ethDex), tokenAmount, rate);\n        return true;\n    }\n\n    function sellTokens(uint256 _value) public returns (bool success) {\n        // User cannot sell more tokens than in balance\n        require(ethDex.balanceOf(msg.sender) >= _value);\n\n        // Calculate the amoiunt of Ether to purchase\n        uint256 etherAmount = _value / rate;\n\n        // Require EthSwap has enough Ether\n        require(address(this).balance >= etherAmount);\n\n        // Transfer to EthSwap\n        ethDex.transferFrom(msg.sender, address(this), _value);\n        payable(msg.sender).transfer(etherAmount);\n        emit TokenSwap(msg.sender, address(ethDex), _value, rate);\n        return true;\n    }\n\n    function name() public view returns (string memory) {\n        return _name;\n    }\n}\n",
  "sourcePath": "/Users/james/Engineering/Projects/eth-dex/src/contracts/EthSwap.sol",
  "compiler": {
    "name": "solc",
    "version": "0.8.14+commit.80d49f37.Emscripten.clang"
  },
  "schemaVersion": "3.4.7",
  "updatedAt": "2022-06-08T23:49:31.767Z",
  "devdoc": {
    "kind": "dev",
    "methods": {},
    "version": 1
  },
  "userdoc": {
    "kind": "user",
    "methods": {},
    "version": 1
  }
}