{
  "contractName": "EthSwap",
  "abi": [
    {
      "inputs": [
        {
          "internalType": "contract EthDex",
          "name": "_ethDex",
          "type": "address"
        }
      ],
      "stateMutability": "nonpayable",
      "type": "constructor"
    },
    {
      "anonymous": false,
      "inputs": [
        {
          "indexed": false,
          "internalType": "address",
          "name": "account",
          "type": "address"
        },
        {
          "indexed": false,
          "internalType": "address",
          "name": "token",
          "type": "address"
        },
        {
          "indexed": false,
          "internalType": "uint256",
          "name": "amount",
          "type": "uint256"
        },
        {
          "indexed": false,
          "internalType": "uint256",
          "name": "rate",
          "type": "uint256"
        }
      ],
      "name": "TokenBought",
      "type": "event"
    },
    {
      "inputs": [],
      "name": "_name",
      "outputs": [
        {
          "internalType": "string",
          "name": "",
          "type": "string"
        }
      ],
      "stateMutability": "view",
      "type": "function"
    },
    {
      "inputs": [],
      "name": "ethDex",
      "outputs": [
        {
          "internalType": "contract EthDex",
          "name": "",
          "type": "address"
        }
      ],
      "stateMutability": "view",
      "type": "function"
    },
    {
      "inputs": [],
      "name": "rate",
      "outputs": [
        {
          "internalType": "uint256",
          "name": "",
          "type": "uint256"
        }
      ],
      "stateMutability": "view",
      "type": "function"
    },
    {
      "inputs": [],
      "name": "buyTokens",
      "outputs": [
        {
          "internalType": "bool",
          "name": "success",
          "type": "bool"
        }
      ],
      "stateMutability": "payable",
      "type": "function"
    },
    {
      "inputs": [
        {
          "internalType": "uint256",
          "name": "_value",
          "type": "uint256"
        }
      ],
      "name": "sellTokens",
      "outputs": [
        {
          "internalType": "bool",
          "name": "success",
          "type": "bool"
        }
      ],
      "stateMutability": "nonpayable",
      "type": "function"
    },
    {
      "inputs": [],
      "name": "name",
      "outputs": [
        {
          "internalType": "string",
          "name": "",
          "type": "string"
        }
      ],
      "stateMutability": "view",
      "type": "function"
    }
  ],
  "bytecode": "0x60c0604052601860808190527f4574685377617020496e7374616e742045786368616e6765000000000000000060a090815261003e9160009190610094565b50606460025534801561005057600080fd5b506040516107b33803806107b383398101604081905261006f9161012d565b600180546001600160a01b0319166001600160a01b0392909216919091179055610197565b8280546100a09061015d565b90600052602060002090601f0160209004810192826100c25760008555610108565b82601f106100db57805160ff1916838001178555610108565b82800160010185558215610108579182015b828111156101085782518255916020019190600101906100ed565b50610114929150610118565b5090565b5b808211156101145760008155600101610119565b60006020828403121561013f57600080fd5b81516001600160a01b038116811461015657600080fd5b9392505050565b600181811c9082168061017157607f821691505b60208210810361019157634e487b7160e01b600052602260045260246000fd5b50919050565b61060d806101a66000396000f3fe6080604052600436106100555760003560e01c806306fdde031461005a5780632c4e722e146100855780636c11bcd3146100a9578063d0febe4c146100d9578063d28d8852146100e1578063fdb2ded6146100f6575b600080fd5b34801561006657600080fd5b5061006f61012e565b60405161007c919061049e565b60405180910390f35b34801561009157600080fd5b5061009b60025481565b60405190815260200161007c565b3480156100b557600080fd5b506100c96100c43660046104f3565b6101c0565b604051901515815260200161007c565b6100c9610285565b3480156100ed57600080fd5b5061006f610410565b34801561010257600080fd5b50600154610116906001600160a01b031681565b6040516001600160a01b03909116815260200161007c565b60606000805461013d9061050c565b80601f01602080910402602001604051908101604052809291908181526020018280546101699061050c565b80156101b65780601f1061018b576101008083540402835291602001916101b6565b820191906000526020600020905b81548152906001019060200180831161019957829003601f168201915b5050505050905090565b600080600254836101d19190610546565b6001546040516323b872dd60e01b8152336004820152306024820152604481018690529192506001600160a01b0316906323b872dd906064016020604051808303816000875af1158015610229573d6000803e3d6000fd5b505050506040513d601f19601f8201168201806040525081019061024d9190610568565b50604051339082156108fc029083906000818181858888f1935050505015801561027b573d6000803e3d6000fd5b5060019392505050565b600080600254346102969190610591565b6001546040516370a0823160e01b815230600482015291925082916001600160a01b03909116906370a0823190602401602060405180830381865afa1580156102e3573d6000803e3d6000fd5b505050506040513d601f19601f8201168201806040525081019061030791906105be565b101561034f5760405162461bcd60e51b8152602060048201526013602482015272496e73756666696369656e7420546f6b656e7360681b604482015260640160405180910390fd5b60015460405163a9059cbb60e01b8152336004820152602481018390526001600160a01b039091169063a9059cbb90604401600060405180830381600087803b15801561039b57600080fd5b505af11580156103af573d6000803e3d6000fd5b5050600154600254604080513381526001600160a01b039093166020840152820185905260608201527f9fa236593f411affe147142a606176190ea6b18be0643332f081175cfe608b6b9250608001905060405180910390a1600191505090565b6000805461041d9061050c565b80601f01602080910402602001604051908101604052809291908181526020018280546104499061050c565b80156104965780601f1061046b57610100808354040283529160200191610496565b820191906000526020600020905b81548152906001019060200180831161047957829003601f168201915b505050505081565b600060208083528351808285015260005b818110156104cb578581018301518582016040015282016104af565b818111156104dd576000604083870101525b50601f01601f1916929092016040019392505050565b60006020828403121561050557600080fd5b5035919050565b600181811c9082168061052057607f821691505b60208210810361054057634e487b7160e01b600052602260045260246000fd5b50919050565b60008261056357634e487b7160e01b600052601260045260246000fd5b500490565b60006020828403121561057a57600080fd5b8151801515811461058a57600080fd5b9392505050565b60008160001904831182151516156105b957634e487b7160e01b600052601160045260246000fd5b500290565b6000602082840312156105d057600080fd5b505191905056fea26469706673582212205daecb77c5015619fc25ca9e3ab0b1623daaf041fa894bdb2d833aeaa1eb4eb164736f6c634300080e0033",
  "immutableReferences": {},
  "source": "// SPDX-License-Identifier: MIT\npragma solidity ^0.8.14;\n\nimport './EthDex.sol';\n\ncontract EthSwap {\n    string public _name = 'EthSwap Instant Exchange';\n    EthDex public ethDex;\n    uint256 public rate = 100;\n\n    event TokenBought(\n        address account,\n        address token,\n        uint256 amount,\n        uint256 rate\n    );\n\n    constructor(EthDex _ethDex) {\n        ethDex = _ethDex;\n    }\n\n    function buyTokens() public payable returns (bool success) {\n        // Calculate the number of EthDex tokens to purchase\n        uint256 tokenAmount = msg.value * rate;\n\n        // Require EthSwap has enough tokens\n        require(\n            ethDex.balanceOf(address(this)) >= tokenAmount,\n            'Insufficient Tokens'\n        );\n        ethDex.transfer(msg.sender, tokenAmount);\n\n        // Emit a token bought event\n        emit TokenBought(msg.sender, address(ethDex), tokenAmount, rate);\n        return true;\n    }\n\n    function sellTokens(uint256 _value) public returns (bool success) {\n        // Calculate the amoiunt of Ether to purchase\n        uint256 etherAmount = _value / rate;\n\n        // Transfer to EthSwap\n        ethDex.transferFrom(msg.sender, address(this), _value);\n        payable(msg.sender).transfer(etherAmount);\n        return true;\n    }\n\n    function name() public view returns (string memory) {\n        return _name;\n    }\n}\n",
  "sourcePath": "/home/james/Engineering/Projects/eth-dex/src/contracts/EthSwap.sol",
  "compiler": {
    "name": "solc",
    "version": "0.8.14+commit.80d49f37.Emscripten.clang"
  },
  "schemaVersion": "3.4.7",
  "updatedAt": "2022-05-29T15:45:15.678Z",
  "devdoc": {
    "kind": "dev",
    "methods": {},
    "version": 1
  },
  "userdoc": {
    "kind": "user",
    "methods": {},
    "version": 1
  }
}